:020000040000FA
:1200000002380002002653A9FB323202000A53A9DF3218
:0700130002002E53A97F3209
:07001B000224B4023F0022A1
:06002300020046C2A832F3
:06002B0002004EC2AA32E1
:16003300020056000000000000000000000000220224CFC2AC32A8
:06004B000224EAC2AD32FE
:06005300020006C2AE32FD
:06005B000225058FF322CF
:060063000225200227B671
:06006B0002000E0227B6A0
:0300730002253B28
:20007B00020016140341004E0053004900200030002E0031000000540048000004030904AC
:20009B001E03500069006E006500360034000000200043004F002E002C004C00540044003E
:2000BB00001A03500069006E00650062006F006F006B002000500072006F000000572D4EAE
:2000DB00313430315F414E5F5054505F4D423237375F5456332D55532D48312D30312D30CE
:2000FB00300012011001000000088A251E0001000102FF0105010906A101050719E029E7EC
:20011B0015002501750195088102950175088101950375010508190129039102950575015A
:20013B00910195067508150026FF00050719002AFF008100C005010902A10185010901A14D
:20015B0000050919012903150025019503750181029501750581030501093009311581259C
:20017B007F750895028106C0C0050D0905A101851E0922A1021500250109470942950275B5
:20019B0001810295017502250309518102095425079501750381020509090125017501954B
:2001BB00018102050115002678057510550E65110930350046B30395018102269203466F91
:2001DB000209318102C0A102550C66011047FFFF000027FFFF000075109501050D09568193
:2001FB0002050D851F0955095975049502250FB102050D852509607501950115002501B158
:20021B00029507B1030600FF852009C5150026FF007508960001B102C0C0050D090EA101AD
:20023B0085220922A10209521500250A75089501B102C00922A100852309570958750195C9
:20025B00022501B1029506B103C0C00601000980A10185022501150075010A81000A820058
:20027B000A83009503810695058101C0060C000901A10185032501150075010AB5000AB665
:20029B00000A6F000A70000AE2000AA2000AE9000AEA00950881020A83010A94010A8601F3
:2002BB000A88010A8A010A92010AB7000ACD00950881020A21020A23020A24020A25020ADF
:2002DB0026020A27020A2A020AB10295088102C00501090CA10185091500250109C69501EA
:2002FB007501810675078103C00600FF0901A1018506150025FF1A01002A0F047508960F37
:20031B0004B102C00600FF0901A1018505150025FF1901290575089505B102C020FC28FEC3
:20033B008440CB9A870DBE573CB670098807972D2BE33834B66CEDB0F7E59CF6C22E841BDC
:20035B00E8B45178431F284B7C2D53AFFC47701B596F7443C4F34718531AA2A171C7950EAF
:20037B00315521D3B51EE90CBAECB889193EB3AF75819D53B94157F46D3925297C87D9B4D1
:20039B0098457DA7269C653B856889D73BBDFF1467F22BF02A4154F0FD2C667CF8C08F33DF
:2003BB001303F1D3C10B89D91B62CD51B780B8AF3A10C18A5BE88A56F08CAAFA35E942C4E5
:2003DB00D855C338CC2B535C6952D5C87302387C73B641E7FF05D82B799AE234608FA3326E
:2003FB001F097862BC80E30FBD65200813C1E2EE532D867EA75AC5D37D98BE31481FFBDA67
:20041B00AFA2A86A89D6BFF2D3322A9AE4CF17B7B8F4E13308248BC443A5E524C209023BD0
:20043B00000201FFA0320904000001030101020921100100012241000705810308000A096E
:20045B00040100010300000009211001000122E7010705820308000AFF140DFF1AA0FF2790
:20047B0029FF1D99FF2729FF2421FF0A9DFF2729FF258AFF233FFF21F7FF1FD7FF2729FF92
:20049B002729FF0BB1FF1D4CFF219CFF2729FF2729FF2729FF2729FF2729FF0E8BFF1B5283
:2004BB00FF213EFF27BCFF27C2FF277DFF1497FF27C8FF27CEFF27BCFF27BCFF2735FF2785
:2004DB0040FF27D4FF27DAFF27BCFF2382FF200DFF27E0FF27E6FF27ECFF2786FF27F2FF2E
:2004FB0027F8FF0066FF278FFF27FEFF006EFF2798FF2760FF2043FF276AFF27BCFF26B129
:20051B00FF27BCFF27BCFF27BCFF1A45FF137A74822537F8E6FFC3949040030207E375F086
:20053B0002EFA42415F582E5F03408F583E493F56575F002EFA42416F582E5F03408F583CD
:20055B00E493F564E56570030207E31223A3E565B40409300A04D2268002C226200A030255
:20057B000723E565B4020CE564B4080478157601020731E565B4010302073CE565B4030398
:20059B00020747E565B40503020752E56564067020302617121904F583E493FDB4FE0930D8
:2005BB002403C22422D2242202076A1218DE02076AE565640760030206B430260B1219107B
:2005DB00F583E493FD02076A7815E670030206AD1218BBB443047F0180027F00EF6029E449
:2005FB007814F67817E6FF30E00B12191C54FEF675120480091218FB4401F6751206D2C0AD
:20061B00D2C11207E40206931218BBB444047F0180027F00EF6029781476017817E6FF3013
:20063B00E10B12191C54FDF675120480091218FB4402F6751206D2C0D2C11207E402069366
:20065B001218BBB445047F0180027F00EF70030206AD781476027817E6FF30E20B12191C29
:20067B0054FBF675120480091218FB4404F6751206D2C0D2C11207E4E5642465FDE51254DA
:20069B0002332DFD7F01121BFF12170D7F00021BFF9F1218BBFD02076AE565640A702930EE
:2006BB00260B1218EFF583E493FD02076AE56425E0301A050206D480072422F582E4343071
:2006DB00F583E493FD02076AE5656409700A302605A20A0207B68049E565640C60030207BA
:0506FB00E3302622E5BA
:20070000E430E3FBE5E4540370F512080112170DE5E430E3FBE5E4540370F512080A020788
:20072000E08019E565B4020FE564B40804E47815F61218D60226C3E565B401061218D602CF
:2007400007BAE565B403061218D6021EEFE565B405061218D6022570E565640670141219BF
:20076000041218CB121BFF1218DEA20AE433FF0207BAE565640770111219101218CB121B34
:20078000FF1218BB1218CF8031E565640A70191218EF1218CB121BFFE56425E02422F58245
:2007A000E434301218CB8012E565B409101218D6121BFFA20AE433FF7D66021BFFE56564B8
:2007C0000C7020A20A33FFAD64121BFF12080A12170DE5E430E3FBE5E4540370F512080191
:2007E00012170D221226547D017FA01219237D01E4FF1219237817E6FF7D01121923022613
:200800009FA20A33FF7D080226C3A20AE433FF7D13121BFF2200000000000000000000004B
:2008200000000002080240000000000000000000000000020400000000070001390104011F
:2008400012040000000000010D011401080134012B011E01350000011801370136011F01F7
:200860002006000129010E010C011C011301210122013C0601000001070A04010901230A04
:20088000070603060200000A020A010A050A080A090605060400000A030A0B0A060A0A009A
:2008A00000070207010A000A0C01380000012F000007040703011B011A012D000000000123
:2008C00030000007050000000001050A0D0000000000000000012C0A0E00000000012E004B
:2008E00000070700000202000000000000000000000000022007090708000007060128016E
:2009000031070A000002010000000000000000000000000210000000000000000000000080
:200920000000000000000000000000000000000000000000003AA53BA63E813D7F40FE3FFF
:20094000801D6442534149444843474553504A4F4D514E524B2A4C185C245F0E5A0D590C10
:200960005D256026610F5B1356125E275510623357376338547893E6240F607614700302AA
:200980000A0724FE7003020A1A147003020A52147003020A91147003020A2D24FA7003022F
:2009A0000A91240D6003020A9CC2AF12185378D6EFF6D2AF64FA703278ABE67892602776AE
:2009C000E0C2AF1216D07A2379FF756902121E2C902401E493FF7B007A00796475690C1284
:2009E0001AFAD2AF800876D08004789276D0789376F1C2AF121C541216EABFFA0476E180B5
:200A00000276D1789376F2C2AF121CA81216EABFFA0476E2803776D28033C2AF12216E12D6
:200A200016EABFFA0476E4800276D48020C2AF902401E4937A2379F89023F71216B7121ECF
:200A40002C1216EABFFA0476E7800276D7789376FC22C2AF121E73EF64FA702A902401938D
:200A6000FF7BFF7A2379FC9023FBE493F569121E2CBFFA1078ABE67892B4010476E5800A92
:200A800076D580068000789276D5789376FCD2AF22E478ABF6789376FC7892F622E52F647C
:200AA000806009E52F64816003020BADE532546024E07003020B3924206003020BABE52F3C
:200AC000B48103020BADE53224FE601914602824027064754B00754C12752900752AFD759A
:200AE0004701020BA4754B00754C3B752904752A38754702020BA4E53114601614601F2402
:200B000003602714702F752900752A97121135020BA4752900752A9B121135020BA475293C
:200B200000752ABC121135020BA4752900752A7E121135806F80768074E5347005E52FB40F
:200B400080028069E533702DE53224DE6014047022754B00754C09752904752A4A7547037E
:200B60008042754B00754C41752901752A0F75470480318038E5336401702EE53224DE60E7
:200B800014047023754B00754C09752904752A63754705800F754B01754CE7752901752A85
:200BA00050754706021620800480028000122729221226165003020CB1E534701FE5337051
:200BC0001BE5317017E532B4020FE52B5407F5EA75490275EB01020C8A020CB1E531640540
:200BE000701BE532B4031675EA057892E6F5EA78ABE6F5EA75490275EB03020C8AE531B4E6
:200C00000621E532B4031CE535B41017E536B40412752900752AD7754B00754C257547086B
:200C2000020CACE531641F7015E532B40310E533B4010B75EA1F75EA04121149804CE531F7
:200C400064257014E532B4030FE533B4010A75EA2578D41211468032E53164227014E532B1
:200C6000B4030FE533B4010A75EA2278BA1211468018E53164237016E532B40311E533B455
:200C8000010C75EA2378D512114612111B22E531B4201CE532B40317E533B401127401F57B
:200CA0004BF54C752903752A377547050216208000122729228B5E8A5F89609000011217BF
:200CC00095242F602E1460492402707490000274A01217C29000037414120D7CEF64FA70D3
:200CE0000F900002120D6C120D4112170312192312269F74341216F374A01217C2900005C0
:200D000074181217C2122654120D4112170302192312269F74A01216F374041217C290000D
:200D20000574EE120D7CEF64FA7012900003120D90900004120D90900005120D6C12269F66
:200D400022AB5EAA5FA960900003121795FF7D01121923AB5EAA5FA960900004121795FFCE
:200D60007D01121923AB5EAA5FA96022AB5EAA5FA960121795FF7D01121923221217C212A7
:200D80002654902401E49325E0FF7D0112192322AB5EAA5FA960121795FF7D0112192322F5
:200DA0008F658D66E4F568746E2566F8E6F567E4FF436880E56825E004F568C20AE567305B
:200DC000E702D20AE56725E0F567E56520E70EBF0702C322E56525E0F565020E7FE56525EE
:200DE000E0F565E566C394124002D3220551E551540FF551E56633333354F84FFE74822501
:200E000051F8A606E5511226FCFE200A15E55130E308EEF4788156F68016EEF4788056F602
:200E2000800EE55130E304788180027880E64EF6E55165376007EF64077044C322EFC394C8
:200E4000075017E56825E0F56830D7047E0180027E00EE2568F5680F80E3746E2566F8E557
:200E60006856F6746E2566F974992566F8E568F45647F71551E551540FF551D209C3220FDF
:200E8000EFC394085003020DB1D32212262B5003020F64E5346003020F67E5367071E535C7
:200EA0009408506BE53354FE7063E5314533700BE532B40206754812020F42E531B4050FC2
:200EC000E532B4030AE535B406057548168073E531B4220AE532B403057548168064E53105
:200EE000B4230AE532B403057548168055E531B41F0AE532B403057548168046E531B42548
:200F00000AE532B40305754816803780578055E53164067020E5326403701AE536640470B3
:200F200046E53564107040E5336401703A7548177549048027E531B4200EE532B403097585
:200F40004816754904E48014E5337016E5317010E532B4020B754812754905E41211292209
:200F600080028000122729227564051223C478B7E6703BE53E600578BAE6701478B9E660B9
:200F80002D121027BFFB030210217D017F1C801278B9E66019121027BFFB030210217D01F9
:200FA0007F1F12192312269FD2AFE478B9F620B37578B7E67070121034BFFB0280637D0132
:200FC0007F5512192312269F120036E53E600578BAE6700575640580037564157B007A0077
:200FE00079BF8564697F10121AFAEF64FA702378BBF608F6D2AFE53EB4011478D4E670128A
:2010000078BAE6700512227B80081212DF80031222F4121034BFFB0280077D017F1E12197F
:201020002312269FD2AF22C2AF1226547D017F2012192322C2AF1226547D017F2012192321
:20104000228F658D668B67E4F56CE5E730E306E5E7540360051227A880F03024030210F633
:2010600078D5E6FF540370030210F678CFE654186007EF30E103756C01C2AF75E51E78D551
:20108000E630E04CAB68AA69A96AAE02AF01EF4E603EE566C454F0FFE56CC43333335480C6
:2010A0004FFFE56725E025E04F4565456BF5E5900001121795F5E512177CF5E590000312BC
:2010C0001795F5E5900002121795540FF5E58015E56CC433333354804401F5E5E4F5E5F514
:2010E000E5F5E5F5E5E4F5E5F5E5D2AF75E60843E701F53AF5452253DBEFD213AF48EF75C8
:20110000F003A424E2F582E43404F583740193FA740293F92275490275EB0143B91075E976
:201120000643EC0122754901E4F5EB43B90875E90143EC0122852A82852983E493754B0086
:20114000F54C75470722E6F5EA75490275EB022214F5828C83E493F5EA0F22C3E54E9408AD
:20116000E54D940022754A0874F8254EF54E74FF354DF54D22F583740193FA740293F902C7
:2011800017E4E493424F75480F754901E42243EF0453EFFE22E5364535453422052AE52AB5
:2011A000AC2922000000E59620E10B20E20E20E30B20E008800078FFE4F6D8FD7581D80215
:2011C00011FD02267BE493A3F8E493A34003F68001F208DFF48029E493A3F85407240CC89D
:2011E000C333C4540F4420C8834004F456800146F6DFE4800B01020408102040809021CA10
:20120000E47E019360BCA3FF543F30E509541FFEE493A360010ECF54C025E060A840B8E4A3
:2012200093A3FAE493A3F8E493A3C8C582C8CAC583CAF0A3C8C582C8CAC583CADFE9DEE7CC
:2012400080BE12266878B77601E478BBF608F678BDF608F61226547D017FA01219237D01E1
:20126000E4FF12192312269F1226547D017FA11219237F01121BAA7817A60712269F7817F5
:20128000E6B4FF02E4F61227A8122710200305E4F52180F212170D121DE4756312E5636040
:2012A000071563121CFC80F5122498786DE6B4F109E4F6C2AF121EB1D2AF7892E6700512A5
:2012C0000F688003120975300B0EC20B12274BE51270B31222CC80AE300CABC20C80A7784E
:2012E000CFE6FF5407FE7005EF54186078EEC39401500778CFE65418606B78C1E6FEC41344
:20130000135402FF78CFE65407FDEE1216C8756900756ABFE6FEC4135401F56B121041783B
:20132000CFE6FE5407C39402403B78C51216BF756900756AC31213669403402978C9121633
:20134000BF756900756AC71213669404401778CD1216BF756900756ACBEEC4135401F56BA2
:20136000E4FD12104122EEC4135401F56BE4FD12104178CFE6FE5407C322E52FB4061FE50C
:2013800031B4CC1AE532B4CC15E535B4CC10E536B4CC0B7B007A00792F120CB5806BE52F17
:2013A00064EE702DE53164CC7027E532B4CC22E533B4CC1DE534B4CC18E535B4CC13E5367A
:2013C000B4CC0E7B007A00792F120CB5E4F54980387D01AF2F1219237D01AF301219237D63
:2013E00001AF311219237D01AF321219237D01AF331219237D01AF341219237D01AF351240
:2014000019237D01AF36121923E4F5B922E53564026003021493E5367079E52F247F601470
:2014200014602A2402706AE5A47004F5EA804675EA028041E53460028059E5331460050461
:2014400070098021300302801C80488046E53460028040E5332480600C14600E14601B247B
:2014600082702C8000E4F5EA801C30030BE5E45402C313F5EAE4800E8019300310E5E754EF
:2014800002C313F5EAE412114712111B2280048002800012272922E54E454D607012115BCA
:2014A00040051211658008854E4AE4F54DF54EE54A604FE547604BE54764087031E54E45EB
:2014C0004D702BFFE54A24FEFEEFC39E500C12119C7002052912115080EA786DE6FEC4540D
:2014E0000F2430F5EAEE540F2430F5EA8014E4FFEFC3954A500C12119C70020529121150F0
:2015000080EE854AEB12111B2012118008301109C211E4F5EB43EC012243EC0222E4F562D9
:20152000E5DF30E103E4F5DFE5DF30E26E53DFFB1227A8053AAF3AEFC39543405B30034CFD
:20154000E53F7008E551653760028016E4FF74992FF9746E2FF8E64742620FBF12F0E5621C
:2015600060095396BFE4F53AD2AB22E4F59543F310E5A4B4FF1075A0FFE4F580F59043B0C3
:201580000D53B0CF80031225BC12210EE4F59543F3101225BC12210ED2AB22E4F5DF22C292
:2015A000AFE5EF54186007E5EF20E46E8066E5EE64087060AFEE12240212118EE5EF20E43C
:2015C00059E4F5B953DB67F549F5485322F0F547F5E9F53AE52F546024E0601B2420703730
:2015E000E530C3940D5033AF30EF75F003A42473F582E434048015E530C3940C501CAF3093
:20160000EF75F003A4249AF582E4340412110A1217E4800612118E12272953EFFBD2AF22CB
:20162000AF36EFFEAD357C00E42DFFEC3EFE754902F54D8F4EE547600FC3E54C9FE54B9E67
:201640005006854B4D854C4E12115B400DE54964026005E549B404020549E54E54077004FC
:20166000D2118002C21112115B40051211658008854E4AE4F54DF54EE54A6018E547601492
:20168000E4FFEFC3954A500C12119C7002052912115080EE854AEB12111B22902401E493F4
:2016A000FF7B007A0079AB75690122902401E4937A2379E49023E3FF7BFFE493F56922E6FF
:2016C000FDC413135402FFEDC45407FB75680022902401E493FF7BFF2278C0E6C45403F5D3
:2016E000E508E6F5E508E6F5E52278D6EFF6D2AF789222AB5EAA5FA9609000031217C2904A
:20170000000422900005121795FF7D01227817E6FE30E004C2B18002D2B1EE30E104C2B637
:201720008002D2B6EE30E204C2B78002D2B7E5E430E348E5E45403704230223FC222E59631
:2017400030E4045396EF22C2AF78ACE6F5E2E4F5E230080AFF75E2010FBF06F9800DE4FF94
:2017600074AD2FF8E6F5E20FBF06F5D2AF75E30843E401853C3DE4F53AF54522BB010689DA
:20178000828A83E0225002E722BBFE02E32289828A83E49322BB010CE58229F582E5833A7B
:2017A000F583E0225006E92582F8E622BBFE06E92582F8E222E58229F582E5833AF583E479
:2017C0009322F8BB010DE58229F582E5833AF583E8F0225006E92582C8F622BBFE05E925E6
:2017E00082C8F2228A838982E4731225BCE526C39412505AE52690223E93FFC39404504A89
:20180000EF64026045EF70071226F5F5808020E52690223E93B401071226F5F59080101288
:2018200026F5B4EF06C2B4D2B58004D2B4C2B51227AF85A0391227AFE539B5A0F2AFA01272
:2018400025A3EFF4F539C20F8006D20F8002D20F0225BCC2AF1226547D017F20121923BF0A
:20186000FA0E7D017FD11219237D017F0512192312269FD2AF439D0D7F1612245EE478AB7F
:20188000F678D7F61216AB121E2C78D8EFF6BFFB02801712169B121AFA78D8EFF6BFFB027C
:2018A000800878ABE660037FFA227F0512245E78D706E6C394C840CC7FFB22E56425E0240D
:2018C0000CF582E43430F583E49322F583E493FDA20AE433FF22A20AE433FFAD6422E5641E
:2018E00025E02400F582E43430F583E493FD22E56425E02423F582E4343022E4F510F5118D
:201900007817E622E56425E02401F582E4343022E56425E0240DF582E4343022E4F510F59E
:2019200011EF22E4F56BFEEF30E705439D018005539DFEC2B0000000000000439D04EF257A
:20194000E0FF000000000000000000000000539DFBC2B20EBE08D0000000000000000000A5
:20196000000000439D01000000000000439D041227AFA2B0E433FD539DFBC2B2BD01037FB5
:20198000FB227FFA22E4F594759355152EE52E7052E512D3940040330511E5117002051049
:2019A00064504510702CF510F511539EF87814E6FF7004B2C08010EFB40104B2C18008EF15
:2019C000B40204B2C0B2C115128007E4F512F510F511D20B752E14300309E545D394004023
:2019E000021545D20C22C2AFE5EF30E402802943EF04E5EE6027E5EEC39409400E12118EC5
:201A000043EC0243EF021227B6801DAFEE12240253EFFEE5EF30E41553DBF7800B53EFFED3
:201A2000E5EF30E40853DBF753EFFB8012122703EF75F003A424D0F582E434041211755319
:201A4000EFFBD2AF22E52F64057031E530B47518E5344533453245317022C2AF745A75F0D1
:201A6000A512001ED2AF8014E530B4A0067892760B8009E530B4A1047893A631E52FB423BE
:201A80000478D5A630E52FB4250678D4A630800DE52FB4220878BAA63078B976010227B6FC
:201AA000E5327052E52F24FE601024027046E531B401057548038032803CE534453170329C
:201AC000E5332480600F1460111460182482702075480480157548058010300305754806F1
:201AE0008008801230030775480A121125228006800480028000122729228F658B668A67FB
:201B00008968122654E56525E04401FF7D01121923EF64FA701CF56AE56914FFE56AC39F9F
:201B20005009E4FF121B3E056A80ED7F01121B3E800612269F7FFB2212269F7FFA22121B9F
:201B4000AAAB66AA67A968856A82758300EF1217C22212262B404F1211957048E533700950
:201B6000E531704275480D8010E53364017033E531700B434F0375480F754901801E90271D
:201B800025E493B5310890271D121182800E902726E493B5310A90271E1211821211292288
:201BA00080048002800012272922E4F56B439D01FE439D04E56B25E0F56BA2B0E433426B49
:201BC000000000000000000000000000539DFBC2B20000000000000000000000000EBE08D2
:201BE000D0EF6005439D018005539DFEC2B01227AF439D041227AF539DFBC2B2AF6B22EFBD
:201C0000601FE4FE74AD2EF8E6700974AD2EF8A605D2222274AD2EF8E66D60370EBE06E4CE
:201C200022E4FE74AD2EF8E66D7024EEC394055017AF06EFC39405500F74AE2FF8E6FC74C3
:201C4000AD2FF8A6040F80EBE478B2F6D222220EBE06D0221216D07A2379E79023E6121CF2
:201C60009CBFFB037FFB227F0512245E1216D07A2379EB9023EA121C9CBFFB037FFB22128C
:201C8000169B121AFA78D7EFF6BFFB037FFB2278ABE6645560037FFB227FFA22E493F569AF
:201CA000121E2C78D7EFF6221216D07A2379EE9023ED121CF0BFFB037FFB227F1912245E33
:201CC0001216D07A2379F29023F1121CF0BFFB037FFB2212169B121AFA78D7EFF6BFFB030F
:201CE0007FFB2278ABE6645560037FFB227FFA22E493F569121E2C78D7EFF62220094C12DE
:201D000017EA300F028041E5277017746E2526F8A6390526E526C394125001220527E4F512
:201D20002622746E2526F8E665396002801A0526E526C39412500122121F66920830080239
:201D40008006200903121F2B122804221226164044E5364534703CE53564017036E5337056
:201D600009E5317030853CEA8021E5336401702190272593B531077895E6F5EA800D9027D8
:201D800026E493B531097896E6F5EA1211152280048002800012272922E536453545327004
:201DA0003FE52F700CE531B401057548078029802FE52F64027027E53445317021E53354CB
:201DC0007F601B300318E533B481057548088008E533B4820775480B121125228002800096
:201DE00012272922E5E730E342E5E75403703CE5457038302011C220C2AF75E50278B3E67C
:201E0000F5E575E602801A302121C221C2AF75E50378B4E6F5E508E6F5E508E6F5E575E6F7
:201E200004D2AF43E701E4F53AF545228F658B668A678968122654E56525E0FF7D01121939
:201E400023BFFA23AF691569EF6022AB66AA67A96812177CFF7D0112192374012568F5687A
:201E6000E43567F56780DD12269F7FFB2212269F7FFA22E478ABF678D7F61216AB121E2CD3
:201E800078D8EFF6BFFB02801712169B121AFA78D8EFF6BFFB02800878ABE660037FFA2251
:201EA0007F0512245E78D706E6C3940840CC7FFB221226547D017F20121923BFFB02801A7B
:201EC0007D017F1D12192312269F1200361226547D017F21121923BFFB0812269FE4786D21
:201EE000F6227F01121BAA786DA60712269F22ED2450131313541FFE53061F0EED5407907F
:201F0000271D93FBFCEF601074B32EF8E65C701A74B32EF8E64C800F74B32EF8E65C600A74
:201F200074B32EF8EBF456F6D22122E4F564F56474992564F8E6FF746E2564F8E6FEB50708
:201F4000028019EE6FFFAD64120DA0500122746E2564F8E6FF74992564F8A6070564E56412
:201F6000C3941240CB22E4FFFE746E2EF8E6FD5FFCED4207EC6023C3135455FDEC54552DC1
:201F8000FC13135433FDEC54332DFCC4540FFDEC540F2DD394014002D3220EBE12CBC32232
:201FA000E4F527F5267881F618F6F539F538F551F537F53BF53FF540F541F542F543F544C5
:201FC000F545786DF6789376FC7892F678D4F678D5760378BAF62230032F12119545324547
:201FE000317026E52F64017020E5337008754809754901800CE533B4010D75480C7549010E
:20200000E4F5EB12111B2280001227292285313BE53B601453E4FD43E40C53E7FD43E70C3F
:202020005320F0432088801853E4F753E7F7E5F260085320F043208480065320F043208204
:202040000227B6E54F5403FFBF0314E4FF74952FF8A63274972FF8A6320FBF02F08017E510
:202060004F30E00A7895A6327897A63280087896A6327898A6320227B6E4FF742F2FF8E465
:20208000F60FBF08F6E478ACF6FF74AD2FF8E4F60FBF06F6E4FF74B32FF8E4F60FBF04F6C2
:2020A000E4F522752120F5247817F62230032EE4F53FE5E430E00353E4FEE5E730E01E53D8
:2020C000E7FEE53890272593F5E5E53890272793FFEF6006E4F5E51F80F743E70122E596B7
:2020E00030E104D21B801EE59630E2051226D58017E59630E305122250800DE59630E005D6
:202100001224408006122556E4F5960227A843C067E4F5A6F5A3F5A2F5A5F53AF54585F363
:2021200028C2AF53968E1227A8438702758E5500000043F3207F1A12245E53F3CF22122698
:202140002B40271211954532701EE533700875480E754901800CE533B4010B754810754927
:2021600001E41211292280028000122729221216D07A2379F59023F4E493F569121E2C7833
:20218000D7EFF6BFFA1312169B121AFA78D7A60778ABE6B455037FFA227FFB2212261640F8
:2021A00025E5364534701DE53564017017E5337005853EEA8008E533B401078544EA121167
:2021C000152280028000122729220210000001120001B80001B90002BB000002BD0000012D
:2021E000B70001D50301D400C12801160001130001150001140000300326E53645347020BE
:20220000E5356401701AE52F64817014E53370028006E533B40107E4F5EA121115228000B7
:20222000122729220102040810204080FEFDFBF7EFDFBF7FFEFDFBF7EFDFBF7FEFDF00005B
:20224000000000000000010101010101010103031227A843C067759E6075F381120036126F
:20226000268DEF20E504EF30E6E675F301759E607F6212245E1227A1022556E5E730E3063B
:20228000E5E7540360051227A880F0202415C2AF75E5011216D9D2AF75E60443E701E4F55B
:2022A0003AF54522E4F59AF59BF59C759D0D759E60F5A4F5A2F5A3F5A553A6F87580FF75A6
:2022C00090FF75B0FF75A0FF43C00722539EF8E52B30E006C2C1D21A8004D2C1C21AE52B8A
:2022E00030E104C2C08002D2C0E52B30E203C2C222D2C222E5E730E306E5E7540360051233
:2023000027A880F0202412C2AF1216D9D2AF75E60343E701E4F53AF54522C2AF1227A843A8
:202320009E6075F301752001301B1375F341122361D207D21BD219C2187FC212005E22E5C0
:202340003645354532452F7014E5F26010E5316005E531B40107754802121125221227293F
:2023600022E4F5F2753C7D753D7D753E01FF74952FF8E4F674972FF8E4F60FBF02F07544D1
:2023800001228546F2E4F53B53E4F753E7F7E5F260085320F043208480065320F043208293
:2023A0000227B6E53730E3091226FC788156FF8009E5371226FC788056FFEF7003C38001B8
:2023C000D3920A2278B7E6B4011878BE06E618700106D378BEE694D018E694074004E4784D
:2023E000B7F62202A00003A001AA02A00203A0020002A00302A00503A0030003A006EEA0AC
:20240000081A8F4AE4FDFCEFFBC3ED9B7480F86C98500D742F2DF8A6ED0DBD00010C80E7C9
:2024200022E53545364532452F7011E531C39480500A85314675480112112522122729228A
:20244000E59630E4067545191227A1E5F354CA44C2FF12005E1220AC53968E0225BCC2AF26
:2024600075D3FC75D4F053DAF7EF600E1227A8E5DA30E3F853DAF71F80EF22C2AF43EF0438
:20248000122703EF75F003A424BEF582E4340412117553EFFBD2AF22E551B5370BE4F537DB
:2024A000F55130090EC209220537E537540FF53712052A22C0E0C0F0C083C082C0D075D0AE
:2024C00008121985D0D0D082D083D0F0D0E032C0E0C0F0C083C082C0D075D01812159FD005
:2024E000D0D082D083D0F0D0E032C0E0C0F0C083C082C0D075D01812159FD0D0D082D083F8
:20250000D0F0D0E032C0E0C0F0C083C082C0D075D01812247BD0D0D082D083D0F0D0E032BF
:20252000C0E0C0F0C083C082C0D075D0181219E6D0D0D082D083D0F0D0E032C0E0C0F0C0D1
:2025400083C082C0D075D01812151DD0D0D082D083D0F0D0E032759D0DE4F52B1227A81288
:2025600026E61227A87F6E12245E1227A102231AEF600A78B3E65D7010E64D800978B3E6C0
:202580005D6006EDF456F6D22022E535B40110E536700CE52FB48007853BEA12111522125C
:2025A000272922E4FEFDEE25E0FEED902224935F60034306010DBD08EDAF0622E4F59CF577
:2025C0009BF59A539D0D7580FF7590FF75A0FFD2B4D2B522E4F5A8F5A9F5DCF5DDF5B8F535
:2025E000B9F5DAF5DBF5DEF5DF227F12786EE4F608DFFC1227567F107882E4F608DFFC228F
:2026000012003600000000000000000000000000000000000022200302D322E52F64A160BD
:2026200008E52F64A26002D322C322200302D322E52F64216008E52F64226002D322C3224B
:202640001227A885C0641227AFE564B5C0F2E5645460FF22439D051227AF539DFEC2B012FB
:202660002600539DFBC2B222752E1475D3CE53DAF753DAFD75D4A075A88822C2AF53D0E76D
:202680001227A81220DE300703121242221227A81226408F63122640E563B507F0FF22535C
:2026A0009DFEC2B01227AF439D04122600439D0122E549B4040CE52F5407F52B301303122D
:2026C00027B622D222EF600678ACE64DF622EDF478AC56F6221227A81226E61223617520A6
:2026E000827FCA02005E1225D41227A8122774E4F5950222A4E52690222C93225407902730
:202700001D9322E549C394064003E4F549AF492243DD0643A95B43A88053D0E722010204D2
:2027200008102040800302030143EC0243EF02E4F549F5B92253DBEFD213E4F5470227B640
:2027400053DBEFD213E4F5470227B6E53C6006D53D03853C3D227F127899E4F608DFFC223B
:2027600085313E78B976010227B685314478B976010227B6122079121FA00225EA43EC029F
:2027800053EFFBD2AF2253E4FD43E40C0227B653E7FD43E70C0227B685323C85323D0227B7
:2027A000B675D4A075A88822E4F5947593552200000000000022E4F549F5B92253EFFBD2A4
:2027C000AF221210FC0217E41210F70217E41210F70217E41210FC0217E41210FC0217E4AB
:2027E000E4F5A40227B653EFFD0227B653ECFD0227B675A4FF0227B643E40E0227B643E70F
:0A2800000E0227B6E4F527F52622A4
:203000003AA53BA63D7F3E813F8040FE336441494246435344474548524B504A514E4F4DAF
:203020002A4C10620B59175A115B0A5C065D155E245F2560266127550F56165719631D5461
:0537FB000211A3000013
:2038000075F0A5C2AF759355E59620E16230E228E520B44123B52420E521B44B1BE522B4C7
:203820004916E523B4521101D5759E6075C07F9037FEE493645A60EF9037FBE493B402E7EE
:20384000E4F5F0900000758107F5D00237FB903FBA78207906E5F0B4A5FDE493F608A3D95D
:20386000F9E4F51DF51EF51F9037FF93F52722114E741420C5B330C6B01470F7F59EF874FC
:203880001475C0DFD8FE30C6A075C0BFD8FE20C59875C0FFD8FE30C590B40A02F51DB41127
:2038A00003751E09B40602F51F759355D5E0D2D8FE20C50520C60221A675812775C09F75E0
:2038C00012057D377CFE745AB1BEC2C5D1C5D2C5D1C530C5F5759355758127E4F5D0759EFC
:2038E0006075C07FE596540A600A75F301114ED1CF75F3C2513075F3CA759403E520B44126
:20390000FD652470FE20AFFD759355E5DB30E03B53DBFEE5EF5418701C7153BB082043EFAE
:203920000453EFFEE5EF20E41571E5516420330E53EFFB01FC20E40E43EF0453EFFE43ECF9
:203940000243EF0271F153EFFB01FC30E10553DBFD211330E31F53DBF753EFFB20300471C7
:20396000612170E510B40106E50AF5F2600071F153EFFB01FC30E42C53DBEFE5EF20E4148A
:2039800043EF04203104E5EE700E53EFFE71F153EFFB01FCD233213E715343EF0453EFFED1
:2039A00071AD218F01FCC2C6759403758127513075120575C0FF75935520C5FA30C607C24F
:2039C000C620C5EF21C174025122B43310511DFC511DFDBD5ADDEC70DAF11B21B3B455168D
:2039E00079087A08511DF709DAFA79087A08E7B1C409DAFA21B3B466FD913770FE7A08D1D2
:203A00008D759355D375C0FF30C5FD20C5FD3392C6C370F430C5FDC2C6DAE421B375C0FFEF
:203A2000740130C5FD20C5FDA2C63350F5C2C622E4F596F5F2F5267818F6D8FDF5A8F5A9AC
:203A4000F5DCF5DDF5B8F5B9F5DAF5DBF5DEF5DFF595F59AF59BF59CF59D14F580F590F553
:203A6000A0F5B0227B00E5087012D230E509B4050474014187B4095DF522418620E759D2E1
:203A800030E509B40A09E48BEBF51043EC0122B40943E508B4213EE50BB4020474024187A8
:203AA000B403329100B4050CBE062ABF002774047E044187B4060CBE021BBF081874067EB9
:203AC000004187B4410FB5250C913760021161B11974084187D23322D23120E534E509B485
:203AE00006F3E50B30E502941B60EAB4080050E523F8903FAA93FC7D3FE80493FE7F00E51C
:203B00000F7009C3EE950E4003E50EFE7512416192B4A1C1D509BEE50BB403B99100B4057E
:203B200019BE06B1BF00AE7A04E513B452A77B028512EA75EA721E1E6185B4060ABE02955D
:203B4000BF08927A066129B4418BB525889137708461927808E5EEF9FB6005A6ED08D9FB56
:203B600022E5106010EF7008EE600BB40802D234E510B4050922103401227B004186B407FD
:203B80000E7A087B0071FB719E912E74074187B409E3719874094187B1187A087B00EE4FAC
:203BA000600AEA6007D18DF5EA0BDAF222E510B40220E509F4551130E21453F3F7759E602B
:203BC00075C07F1161513075F301D1C5013885091122B40406910D7B004186B4060281D793
:203BE000B408EEA101E453DB67F5E953ECFD53EFFDE4F510F512F526D23722AC14AD1522CD
:203C0000AC0CAD0DAE0EAF0FE50AF51222E508B405FAE509B47702811BF513B4521E913755
:203C20006008E50BB4FC0C750A00AC0AAD0B8C148D1522E4F51322E52764A522B457069138
:203C40003770F0812AB45609912AEC4D70E5F51822B47727E513B457B371FB7A04790AEE34
:203C60004F600BE513B45708E7B1C409DAF1812ED18D67600474EE421880F0B44116E50A51
:203C8000B44B11E50BB4490CE50CB45207E50DB44102F52554DFB4453DE50AB4450D630B4E
:203CA0004F630C4C630D4391CCE11BB45A087CFE7D37E50BA1BEB4A507B5271A7CFF81B059
:203CC000B4FF069137700FA12CB4050A850B1D850C1E850D1F2222E51354FEB4561F103749
:203CE00008EB7908FA71FB815FE5096420B5130DE508B40608790AEBC3940250E77513008E
:203D000022EB6014B4080040027408FA7908EE4F6006E7B1C409DAF622913770FBEDB45A05
:203D2000F7ECB4FE047455A13CB4FF0474AAA13C543CF5F775BE0075BF0074E6F5B37593A5
:203D400055751C05E512B40555851CB4751C0A851DB5851EB6E5B3B4E61AE5F724C8502B44
:203D60008030E5BEB403005022048380023800B5BF20A18BB46E14E5F760E724C8500C2401
:203D8000F9500F700DE5BE24415007851FB700000000E4F5B3F5B4F5B5F5B6F5B722B40682
:203DA00002A149B441F7A149EE70011F1E227D007C017438B1BE7400B1BE7C007402F5BFE5
:203DC0008DF7C110F5BFE512B44102C108BDFC0A75F73FEC44C0F5BEC112ED700FECB40330
:203DE00000502575F73724FBF5BEC112B4FF09303016EC20E712C119B43800501CB43708AA
:203E0000BCFA004003BCFA11EDB440005026F5F78CBE746EB13C75F700B1A8C1B7B4FE0790
:203E2000ECF8E5BFF6C119B4FD08ECF875F700E5BFF2C119B4FFE6EC33745A4001C48CBEDC
:203E4000C114E583700CE582B40300504B9037FBC18AB4FF0A303140E58220E73BC186B4E1
:203E6000FC1575833FEC30E70644C0F582C1895403FC2418F8C1ADB43800500AB43719E508
:203E800082B4FA0040129037FAE493C1B7B1A88C828D83E512B441AAE583B440005004E44F
:203EA00093C1B7B4FF02C1B6B4FE05A882E6C1B7B4FD04758300E00CBC00090DBDFD011D49
:203EC000BD00011D22D1C7D8FE759355D9F9227806E4F6D8FD7F40751205D18D29F95005D9
:203EE0000ABA00010B759355BD40EF891B8A1A8B19E94A4B6006BB3F06BAC0037527A522F9
:203F0000C2AF53F3F7759355758127B45AFDE4F5D0F5F3759E6075C07F01EA74381454FCBB
:203F2000FAB130EA70F7B1AEB1AEC1CF120110010000000803062010010300000001040396
:203F4000090409022200010100A0320904000001030101000921100100012248000705810D
:203F60000308000A05010906A1018507050895087501190129089102C00600FF0901A1017A
:203F80008505150025FF1901290575089505B102C00600FF0901A1018506150025FF1A01FC
:203FA000002A01087508960108B102C02C1242223E044B095D0754096448414B4952410032
:203FC0000000000000000000000000000000000000000000000000000000000000000000E1
:203FE0000000000000000000000000000000000000000000000000000000000000000000C1
